:020000040800F2
:10000000202F002045010008411B00080F020008B6
:100010003D1B0008250C0008E53C0008000000001E
:10002000000000000000000000000000FD33000898
:10003000D91100080000000097010008E934000809
:100040005F0100085F0100085F0100085F01000810
:100050005F0100085F0100085F0100085F01000800
:100060005F0100085F0100085F0100085F010008F0
:100070005F0100085F0100085F0100085F010008E0
:100080005F0100085F0100085F0100085F010008D0
:100090005F0100085F0100085F0100085F010008C0
:1000A0005F0100085F0100085F0100085F010008B0
:1000B0005F0100085F0100085F0100085F010008A0
:1000C0005F0100085F0100085F0100085F01000890
:1000D0005F010008593500085F0100085F01000852
:1000E0005F0100085F0100085F0100085F01000870
:1000F0005F0100085F0100085F0100085F01000860
:100100005F0100085F0100085F0100085F0100084F
:100110005F0100085F0100085F0100085F0100083F
:100120005F0100085F0100085F0100085F0100082F
:10013000DFF80CD000F02AF9004800478171000870
:10014000202F00200648804706480047FEE7FEE7CC
:10015000FEE7FEE7FEE7FEE7FEE7FEE7FEE7FEE777
:10016000F934000831010008EFF3108072B67047CF
:1001700080F310887047324A1368012B04D04FF087
:10018000010313602F4A10602F4A11602F484FF06F
:10019000805101607047EFF3108272B62848016801
:1001A00091B14FF0000101602648016829B1EFF3D9
:1001B000098121E9F00F0068016023490968096895
:1001C000B1E8F00F81F3098882F310884EF0040E35
:1001D00070471D4908601B494FF00000086018492E
:1001E0004FF0010008601A484FF47F01D0F800205A
:1001F00041EA0201016015484FF080510160154845
:100200000068006880F3088862B6704700BF1EF07F
:10021000040F14BFEFF30880EFF3098020E9F00F1B
:1002200040F804ED14BF80F3088880F3098800B516
:1002300008F09EFC5DF804EB4EF0040E70470000E1
:1002400010170020081700200C17002004ED00E014
:1002500020ED00E008ED00E040EA01039B0703D039
:1002600009E008C9121F08C0042AFAD203E011F8F5
:10027000013B00F8013B521EF9D27047D2B201E0B7
:1002800000F8012B491EFBD270470022F6E710B59B
:1002900013460A4604461946FFF7F0FF204610BDF4
:1002A00010B5044604E00B7800F8013B03B1491C8B
:1002B000521EF8D2204610BD421C10F8011B002926
:1002C000FBD1801A704710B5002200E0521C835CFD
:1002D0008C5CA34201D1002BF8D1D8B2E1B2401A14
:1002E00010BD30B505460020034600E05B1C93427C
:1002F00005D2EC5CC85C201A01D1002CF6D130BDCF
:1003000070B5064603F0F0FC046805460A22002199
:10031000304600F002F82C6070BD2DE9F0479146A0
:100320000F4680460446002614F8015B2DB100F00C
:100330003FF80068405DC007F6D12B2D02D02D2D6F
:1003400018D0641E4A463946204600F035F827B1D9
:100350003968A14201D1C7F8008071054FF002044D
:100360000BD54042002803DD03F0BEFC0460A0076B
:10037000BDE8F08746F48066E4E70028F8DA03F089
:10038000B3FC04606FF00040F2E70000064C074D3C
:1003900006E0E06840F0010394E807009847103455
:1003A000AC42F6D3FFF7C8FE84BB0008A4BB00082C
:1003B00000487047A0B800082DE9F05F8246007839
:1003C000002715468B460AF10104B946302801D0B2
:1003D0009DB113E014F8010B0127782803D05828A9
:1003E00001D045B10AE00DB1102D07D1002710252D
:1003F00014F8010B02E0082500E00A250026B046AB
:100400000EE005FB080005FB06F1012701EB104695
:100410001FFA80F8B6F5803F00D3B94614F8010BF7
:10042000294600F018F80028EBDABBF1000F05D0E0
:100430000FB1641E00E05446CBF80040B9F1000F44
:1004400006D003F051FC02210160C81EBDE8F09FF8
:1004500048EA0640FAE73A2800D2303820F0200275
:10046000412A01D3A2F13700884201D34FF0FF3077
:10047000704770B58C1810F8015B15F0070301D1B7
:1004800010F8013B2A1106D110F8012B03E010F8F7
:10049000016B01F8016B5B1EF9D12B0705D400231A
:1004A000521E0DD401F8013BFAE710F8013BCB1ABC
:1004B000921C03E013F8015B01F8015B521EF9D5B1
:1004C000A142D8D3002070BD10B502F001FE02F0A9
:1004D00057FE02F013FE10BD70B504460D461148DC
:1004E000844205D01048844202D01048844200D192
:1004F00004E04FF497710EA003F052FF0DB1012DEF
:1005000000D104E040F22F1109A003F049FF25B10A
:10051000A06840F00100A06003E0A06820F00100A6
:10052000A06070BD0024014000280140003C014053
:100530004C69627261726965735C53544D33324623
:100540003130785F5374645065726970685F4472CB
:10055000697665725C7372635C73746D3332663195
:1005600030785F6164632E630000000070B504465C
:100570000D461048844202D00F48844200D104E066
:1005800040F247110DA003F00BFF0DB1012D00D17A
:1005900004E04FF4A47109A003F002FF25B1A068A4
:1005A00040F48070A06003E0A06820F48070A06038
:1005B00070BD000000240140003C01404C696272A3
:1005C00061726965735C53544D3332463130785FE4
:1005D0005374645065726970685F447269766572BD
:1005E0005C7372635C73746D3332663130785F6153
:1005F00064632E630000000070B5044600250C48BB
:10060000844205D00B48844202D00B48844200D17A
:1006100004E04FF4D97109A003F0C2FEA06800F015
:10062000040008B1012500E00025284670BD000047
:100630000024014000280140003C01404C696272E6
:1006400061726965735C53544D3332463130785F63
:100650005374645065726970685F4472697665723C
:100660005C7372635C73746D3332663130785F61D2
:1006700064632E630000000070B5044600250C483A
:10068000844205D00B48844202D00B48844200D1FA
:1006900004E04FF4C67109A003F082FEA06800F0E8
:1006A000080008B1012500E00025284670BD0000C3
:1006B0000024014000280140003C01404C69627266
:1006C00061726965735C53544D3332463130785FE3
:1006D0005374645065726970685F447269766572BC
:1006E0005C7372635C73746D3332663130785F6152
:1006F00064632E63000000002DE9F04105460C46BE
:10070000002600275D48854205D05D48854202D01D
:100710005C48854200D103E0DF215BA003F040FE8E
:10072000206818B32068B0F5803F1FD02068B0F56E
:10073000003F1BD02068B0F5403F17D02068B0F5CF
:10074000802F13D02068B0F5A02F0FD02068B0F50F
:10075000C02F0BD02068B0F5E02F07D02068B0F58F
:10076000002F03D02068B0F5102F00D103E0E02166
:1007700045A003F015FE207910B12079012800D1A1
:1007800003E0E12140A003F00BFE607910B1607935
:10079000012800D103E0E2213BA003F001FEA068A4
:1007A00088B3A068B0F5003F2DD0A068B0F5802FC9
:1007B00029D0A068B0F5C02F25D0A068B0F5002FD3
:1007C00021D0A068B0F5202F1DD0A068B0F5402F33
:1007D00019D0A068B0F5602F15D0A06898B1A068B6
:1007E000B0F5003F0FD0A068B0F5C02F0BD0A068C7
:1007F000B0F5002F07D0A068B0F5202F03D0A06877
:10080000B0F5402F00D103E0E3211FA003F0C8FDA5
:10081000E06818B1E068B0F5006F00D103E0E421B2
:1008200019A003F0BDFD207C012803DB207C1028EB
:1008300000DC03E0E52114A003F0B2FD6E6821485E
:1008400006402179206840EA012006436E60AE68C8
:100850001D480640D4E902100843617940EA41008E
:100860000643AE60EE6A26F47006207C401EC0B2DD
:10087000074346EA0756EE62BDE8F08100240140D6
:1008800000280140003C01404C6962726172696558
:10089000735C53544D3332463130785F5374645037
:1008A00065726970685F4472697665725C737263C1
:1008B0005C73746D3332663130785F6164632E63CC
:1008C00000000000FFFEF0FFFDF7F1FF2DE9F0470B
:1008D00006460C46174698460025A94660488642BB
:1008E00005D06048864202D05F48864200D104E0CD
:1008F00040F252215DA003F053FD0CB3012C1FD038
:10090000022C1DD0032C1BD0042C19D0052C17D081
:10091000062C15D0072C13D0082C11D0092C0FD081
:100920000A2C0DD00B2C0BD00C2C09D00D2C07D081
:100930000E2C05D00F2C03D0102C01D0112C00D17F
:1009400004E040F2532149A003F02AFD012F02DB0D
:10095000102F00DC04E04FF4157144A003F020FDDB
:10096000B8F1000F14D0B8F1010F11D0B8F1020F97
:100970000ED0B8F1030F0BD0B8F1040F08D0B8F1C6
:10098000050F05D0B8F1060F02D0B8F1070F00D15E
:1009900004E040F2552135A003F002FD092C13DDDF
:1009A000F568A4F10A0000EB4001072000FA01F904
:1009B00025EA0905A4F10A0000EB400008FA00F955
:1009C00045EA0905F5600EE0356904EB44010720AE
:1009D00000FA01F925EA090504EB440008FA00F9D8
:1009E00045EA09053561072F11DA756B781E00EBB2
:1009F00080011F2000FA01F925EA0905781E00EBA5
:100A0000800004FA00F945EA0905756326E00D2F18
:100A100011DA356BF81F00EB80011F2000FA01F995
:100A200025EA0905F81F00EB800004FA00F945EA01
:100A30000905356312E0F56AA7F10D0000EB8001AE
:100A40001F2000FA01F925EA0905A7F10D0000EBC6
:100A5000800004FA00F945EA0905F562BDE8F0876F
:100A60000024014000280140003C01404C696272B2
:100A700061726965735C53544D3332463130785F2F
:100A80005374645065726970685F44726976657208
:100A90005C7372635C73746D3332663130785F619E
:100AA00064632E630000000010B5044609488442C8
:100AB00005D00948844202D00848844200D104E0AD
:100AC0004FF4BF7106A003F06BFCA06840F0080073
:100AD000A06010BD0024014000280140003C0140FE
:100AE0004C69627261726965735C53544D3332466E
:100AF0003130785F5374645065726970685F447216
:100B0000697665725C7372635C73746D33326631DF
:100B100030785F6164632E630000000070B50446A6
:100B20000D461148844205D01048844202D0104836
:100B3000844200D104E04FF4E6710EA003F030FCD3
:100B40000DB1012D00D104E040F2CD1109A003F058
:100B500027FC25B1A06840F4A000A06003E0A068D5
:100B600020F4A000A06070BD0024014000280140D6
:100B7000003C01404C69627261726965735C535458
:100B80004D3332463130785F53746450657269700A
:100B9000685F4472697665725C7372635C73746DCE
:100BA0003332663130785F6164632E630000000089
:100BB00010B504460948844205D00948844202D051
:100BC0000848844200D104E04FF4D27106A003F03B
:100BD000E7FBA06840F00400A06010BD00240140C5
:100BE00000280140003C01404C69627261726965F5
:100BF000735C53544D3332463130785F53746450D4
:100C000065726970685F4472697665725C7372635D
:100C10005C73746D3332663130785F6164632E6368
:100C20000000000000BFFEE710B5084800F080F8A3
:100C30000749064800F0ECF901220221034800F0C0
:100C400071F90121014800F005F810BD08000240CB
:100C5000801B002070B504460D46244884422AD0EB
:100C600022481430844226D020482830844222D0A2
:100C70001E483C3084421ED01C48503084421AD05A
:100C80001A486430844216D018487830844212D012
:100C9000174884420FD01648143084420BD01448B1
:100CA0002830844207D012483C30844203D0104898
:100CB0005030844200D104E040F229110DA003F02D
:100CC0006FFB0DB1012D00D104E04FF4957109A027
:100CD00003F066FB25B1206840F00100206004E0CD
:100CE00020684FF6FE710840206070BD0800024089
:100CF000080402404C69627261726965735C535406
:100D00004D3332463130785F537464506572697088
:100D1000685F4472697665725C7372635C73746D4C
:100D20003332663130785F646D612E6300000000FD
:100D300010B504466A4884422AD069481430844277
:100D400026D067482830844222D065483C3084420F
:100D50001ED06348503084421AD0614864308442C7
:100D600016D05F487830844212D05E4884420FD05B
:100D70005C48143084420BD05A482830844207D053
:100D800058483C30844203D056485030844200D109
:100D900003E06F2154A003F003FB20684FF6FE71BF
:100DA00008402060002020606060A060E0604C4847
:100DB000844208D14A480838406840F00F0048494A
:100DC000083948608AE046481430844208D14448D3
:100DD0000838406840F0F0004149083948607DE03B
:100DE0003F482830844208D13D480838406840F4E4
:100DF00070603B490839486070E039483C308442B3
:100E000008D137480838406840F470403449083900
:100E1000486063E032485030844208D13048083896
:100E2000406840F470202E490839486056E02C484C
:100E30006430844208D12A480838406840F4700081
:100E400027490839486049E025487830844208D16C
:100E500023480838406840F07060214908394860EC
:100E60003CE02048844206D1001F006840F00F009B
:100E7000211F086032E01B481430844208D1194811
:100E8000001F006840F0F0001649091F086025E0C7
:100E900014482830844208D11248001F006840F4EA
:100EA00070601049091F086018E00E483C30844209
:100EB00008D10C48001F006840F470400949091F20
:100EC00008600BE007485030844207D10548001FF6
:100ED000006840F470200349091F086010BD00003D
:100EE00008000240080402404C6962726172696540
:100EF000735C53544D3332463130785F53746450D1
:100F000065726970685F4472697665725C7372635A
:100F10005C73746D3332663130785F646D612E635B
:100F20000000000070B504460D461646274884426E
:100F30002AD026481430844226D0244828308442BF
:100F400022D022483C3084421ED020485030844277
:100F50001AD01E486430844216D01C48783084422F
:100F600012D01B4884420FD01948143084420BD051
:100F700017482830844207D015483C30844203D0BB
:100F800013485030844200D104E040F2491111A0CE
:100F900003F006FA25F00E0008B905B104E04FF49D
:100FA000A5710CA003F0FCF90EB1012E00D104E0F4
:100FB00040F24B1107A003F0F3F91EB1206828435B
:100FC000206002E02068A843206070BD0800024055
:100FD000080402404C69627261726965735C535423
:100FE0004D3332463130785F5374645065726970A6
:100FF000685F4472697665725C7372635C73746D6A
:101000003332663130785F646D612E63000000001A
:1010100070B505460C4600265E4885422AD05D48DC
:101020001430854226D05B482830854222D059486A
:101030003C3085421ED05748503085421AD0554822
:101040006430854216D053487830854212D05248D9
:1010500085420FD05048143085420BD04E4828307E
:10106000854207D04C483C30854203D04A48503036
:10107000854200D103E0CF2148A003F091F9A06898
:10108000102801D0A06800B903E0D02143A003F0EC
:1010900087F9E06820B1E068B0F5803F00D203E056
:1010A000D1213EA003F07CF92069402801D02069BD
:1010B00000B903E0D22139A003F072F960698028F9
:1010C00001D0606900B903E0D32134A003F068F9CE
:1010D000A06938B1A069B0F5807F03D0A069B0F5F0
:1010E000007F00D103E0D4212CA003F059F9E0697E
:1010F00038B1E069B0F5806F03D0E069B0F5006FFA
:1011000000D103E0D52125A003F04AF9206A202868
:1011100001D0206A00B903E0D62120A003F040F9F5
:10112000606AB0F5405F09D0606AB0F5005F05D035
:10113000606AB0F5805F01D0606A00B903E0D72132
:1011400016A003F02DF9A06AB0F5804F01D0A06A77
:1011500000B903E0D82111A003F022F92E6847F668
:10116000F0708643216AA0680843216908436169D9
:101170000843A1690843E1690843616A0843A16A19
:10118000084306432E60E06868602068A8606068D5
:10119000E86070BD08000240080402404C696272B9
:1011A00061726965735C53544D3332463130785FF8
:1011B0005374645065726970685F447269766572D1
:1011C0005C7372635C73746D3332663130785F6464
:1011D0006D612E63000000007047F0B588B00546D1
:1011E0000C46002108E035F811002DF81100002010
:1011F00025F81100481CC1B2A142F4DB00211AE01D
:10120000002212E03DF81260501C3DF810008642AA
:1012100009DD3DF81230501C3DF810002DF8120089
:10122000501C2DF81030501CC2B2601A401E904263
:10123000E8DC481CC1B2A142E2DB0023032104E048
:101240003DF811000344481CC1B20D29F8DB0A2007
:10125000B3FBF0F080B208B0F0BD000008B501218A
:10126000082002F011F802208DF8020004208DF809
:1012700003000002ADF8000069460F4800F020F8B6
:1012800018208DF803004FF40070ADF80000694697
:10129000094800F015F84FF40070ADF80000102078
:1012A0008DF803006946054800F00AF84FF4007114
:1012B000024800F0E7FA08BD00080140000C0140B8
:1012C0002DE9F05F05460C464FF00009CA4600269E
:1012D0000027B046B3465948854211D05848854248
:1012E0000ED0584885420BD05748854208D0574801
:1012F000854205D05648854202D05648854200D1E5
:1013000003E0B22154A003F04BF8E078A0B1E078FC
:10131000042811D0E07828280ED0E07848280BD097
:10132000E078142808D0E078102805D0E0781C2850
:1013300002D0E078182800D103E0B32146A003F0E2
:101340002FF8002010B9208800B103E0B42142A09A
:1013500003F026F8E07800F00F09E07800F01000C4
:1013600080B1A078012805D0A078022802D0A0780A
:10137000032800D103E0BB2137A003F011F8A078C7
:1013800040EA0909207838B3D5F8008000261FE02C
:10139000012000FA06F7208800EA070ABA4516D1AC
:1013A000B7000F2000FA07FB28EA0B0809FA07F03C
:1013B00040EA0808E078282803D10120B04068619D
:1013C00005E0E078482802D10120B0402861761C71
:1013D000082EDDD3C5F800802088FF282BDDD5F846
:1013E0000480002623E006F10800012101FA00F73D
:1013F000208800EA070ABA4518D1B7000F2000FA82
:1014000007FB28EA0B0809FA07F040EA0808E07829
:10141000282803D106F1080081406961E078482856
:1014200004D106F10800012181402961761C082EB3
:10143000D9D3C5F80480BDE8F09F00000008014042
:10144000000C014000100140001401400018014050
:10145000001C0140002001404C69627261726965A4
:10146000735C53544D3332463130785F537464505B
:1014700065726970685F4472697665725C737263E5
:101480005C73746D3332663130785F6770696F2ECC
:10149000630000002DE9F04704460E460027B846D9
:1014A0000025A946012C7DD0022C7BD0042C79D0BC
:1014B000082C77D0694884427FD068482030844225
:1014C0007BD06748844278D065488030844274D0AD
:1014D0006448844271D0644884426ED06348844238
:1014E0006BD06348844268D06248844265D0B4F5CA
:1014F000805F62D0B4F5EA1F5FD0B4F5EB1F5CD01B
:10150000B4F5004F59D05C48844256D0401C844208
:1015100053D0801C844250D0001D84424DD0564888
:101520000F30844249D0B4F1201F46D04FEAF0304A
:10153000844242D0514884423FD0514884423CD0FA
:101540005048844239D05048844236D04F48844273
:1015500033D0B4F5011F30D04D4884422DD0401C0B
:1015600084422AD0801C844227D0001D844224D08B
:1015700047480F30844220D045481F3084421CD059
:1015800043483F30844218D041487F30844214D0D1
:101590003F48FF30844210D03E4884420DD03E4840
:1015A000844200E009E008D03C48844205D03C4831
:1015B000844202D03B48844200D104E040F22A2118
:1015C00039A002F0EDFE0EB1012E00D104E040F290
:1015D0002B2135A002F0E4FE04F00040B0F1004FF2
:1015E00002D14048C56901E03E484568C4F303495B
:1015F000A7B204F44010B0F5401F08D125F0706583
:101600003848406820F070603649486013E004F4C0
:101610008010B0F5801F07D1032000FA09F825EAF1
:10162000080545F0706506E0600D000107FA00F05E
:10163000854345F0706526B1600D010107FA01F0A0
:10164000054304F00040B0F1004F02D12548C561C8
:1016500001E024484560BDE8F08700001000140058
:1016600040001600000118000002180000031800D6
:1016700000081A00000C1A000100200000013000D0
:101680000002300000043000001120000020200083
:10169000010000800002008000040080000800803B
:1016A00000100080002000804C69627261726965E0
:1016B000735C53544D3332463130785F5374645009
:1016C00065726970685F4472697665725C73726393
:1016D0005C73746D3332663130785F6770696F2E7A
:1016E000630000000000014010B504460E4884422B
:1016F00011D00E4884420ED00D4884420BD00D48C4
:10170000844208D00C48844205D00C48844202D060
:101710000B48844200D104E04FF49A7109A002F012
:101720003FFEA06880B210BD00080140000C0140DF
:10173000001001400014014000180140001C01404D
:10174000002001404C69627261726965735C535498
:101750004D3332463130785F53746450657269702E
:10176000685F4472697665725C7372635C73746DF2
:101770003332663130785F6770696F2E6300000026
:1017800070B505460C4600262848854211D02848E9
:1017900085420ED0274885420BD02748854208D085
:1017A0002648854205D02648854202D025488542F4
:1017B00000D104E04FF48F7123A002F0F1FD012C61
:1017C00025D0022C23D0042C21D0082C1FD0102C83
:1017D0001DD0202C1BD0402C19D0802C17D0B4F554
:1017E000807F14D0B4F5007F11D0B4F5806F0ED097
:1017F000B4F5006F0BD0B4F5805F08D0B4F5005F8E
:1018000005D0B4F5804F02D0B4F5004F00D104E00C
:1018100040F21F110CA002F0C3FDA868204008B1DF
:10182000012600E00026304670BD0000000801409F
:10183000000C01400010014000140140001801405C
:10184000001C0140002001404C69627261726965B0
:10185000735C53544D3332463130785F5374645067
:1018600065726970685F4472697665725C737263F1
:101870005C73746D3332663130785F6770696F2ED8
:101880006300000070B504460D461348844211D031
:10189000124884420ED0124884420BD01148844230
:1018A00008D01148844205D01048844202D0104824
:1018B000844200D104E040F279110EA002F070FDE4
:1018C000002008B905B104E04FF4BD7109A002F091
:1018D00067FD656170BD000000080140000C01401B
:1018E000001001400014014000180140001C01409C
:1018F000002001404C69627261726965735C5354E7
:101900004D3332463130785F53746450657269707C
:10191000685F4472697665725C7372635C73746D40
:101920003332663130785F6770696F2E6300000074
:1019300070B504460D461348844211D012488442C3
:101940000ED0124884420BD01148844208D011486E
:10195000844205D01048844202D01048844200D10D
:1019600004E040F269110EA002F01AFD002008B94F
:1019700005B104E04FF4B57109A002F011FD256135
:1019800070BD000000080140000C01400010014043
:101990000014014000180140001C014000200140DB
:1019A0004C69627261726965735C53544D3332469F
:1019B0003130785F5374645065726970685F447247
:1019C000697665725C7372635C73746D3332663111
:1019D00030785F6770696F2E6300000070B5054650
:1019E0000C4616462B48854211D02B4885420ED016
:1019F0002A4885420BD02A48854208D0294885428A
:101A000005D02948854202D02848854200D104E00B
:101A100040F28D1126A002F0C3FC012C25D0022C2F
:101A200023D0042C21D0082C1FD0102C1DD0202C0A
:101A30001BD0402C19D0802C17D0B4F5807F14D047
:101A4000B4F5007F11D0B4F5806F0ED0B4F5006FFF
:101A50000BD0B4F5805F08D0B4F5005F05D0B4F5C5
:101A6000804F02D0B4F5004F00D104E04FF4C771AD
:101A70000FA002F095FC0EB1012E00D104E040F25F
:101A80008F110BA002F08CFC0EB12C6100E06C6198
:101A900070BD000000080140000C01400010014032
:101AA0000014014000180140001C014000200140CA
:101AB0004C69627261726965735C53544D3332468E
:101AC0003130785F5374645065726970685F447236
:101AD000697665725C7372635C73746D3332663100
:101AE00030785F6770696F2E6300000010B51021B9
:101AF0000648FFF772FB40F6E441484340F6FF71A9
:101B000090FBF1F4FFF790F8204610BD601B002019
:101B100010B509480078022804D0032803D004280F
:101B200007D103E000BF00F0BDFE03E002F03AFC85
:101B300000E000BF00BF10BD8715002000BFFEE71A
:101B4000704710B500214FF0006000F081F810BD23
:101B500038B5044620798DF8000000208DF801008A
:101B60008DF8020001208DF80300684600F002F8AD
:101B700038BD00002DE9F0410446002500270F265E
:101B8000E07810B1E078012800D103E0752121A0B0
:101B900002F006FC6078102800DA03E076211DA030
:101BA00002F0FEFBA078102800DA03E0772119A0EC
:101BB00002F0F6FBE07800B32248006800F4E06031
:101BC000C0F5E060050AC5F10407EE40607800FA50
:101BD00007F5A078304005432D011B482278855435
:101BE000207800F01F0101208840217849118900E8
:101BF00001F1E021C1F8000109E0207800F01F01A7
:101C00000120884011492278521141F82200BDE894
:101C1000F08100004C69627261726965735C5354B3
:101C20004D3332463130785F537464506572697059
:101C3000685F4472697665725C7372635C6D697328
:101C4000632E63000CED00E000E400E080E100E0C2
:101C500070B504460D46B4F1005F02D0B4F1006FD8
:101C600000D103E09F2109A002F09AFB13488542AE
:101C700000D203E0A02105A002F092FB104905EA82
:101C8000010020430F49086070BD00004C6962727A
:101C900061726965735C53544D3332463130785FFD
:101CA0005374645065726970685F447269766572D6
:101CB0005C7372635C6D6973632E6300FFFF0F00DA
:101CC00080FFFF1F08ED00E000BF0A48006810F821
:101CD000080C0849096811F8041C084405490968FA
:101CE00001F8080C03480068001F0249086000BFA3
:101CF000704700008417002000BF0A48006850F8B1
:101D0000080C0849096851F8041C08440549096889
:101D100041F8080C03480068001F0249086000BF32
:101D2000704700008417002000BF0A48006830F8A0
:101D3000080C0849096831F8041C084400B2054938
:101D4000096821F8080C03480068001F0149086071
:101D500000BF70478417002000BF0A48006810F8D1
:101D6000080C0849096811F8041C0840054909686D
:101D700001F8080C03480068001F0249086000BF12
:101D8000704700008417002000BF0A48006850F820
:101D9000080C0849096851F8041C084005490968FD
:101DA00041F8080C03480068001F0249086000BFA2
:101DB000704700008417002000BF0A48006830F90F
:101DC000080C0849096831F9041C084005490968EC
:101DD00021F8080C03480068001F0249086000BF92
:101DE00070470000841700200448006810F8040CB5
:101DF000C0430249096801F8040C704784170020A9
:101E00000448006850F8040CC0430249096841F8CE
:101E1000040C7047841700200448006830F9040C53
:101E2000C0430249096821F8040C70478417002058
:101E300010B5A4B0DF48006800781390DD48006852
:101E4000401CDC49086000201290DB480068001F3D
:101E5000D949086011E0D848006802681398401E0C
:101E60001299401A14A941F82020D3480068001F95
:101E7000D14908601298401C1290DDE91201884295
:101E8000E9D3CD48006800681190139811286ED2EC
:101E9000DFE800F0090E141D293747596E849CB6FF
:101EA000D2F4F2F1F000002011998847109074E10B
:101EB00014980F901199884710906EE115980F9023
:101EC00014980E90119A0F999047109065E116980A
:101ED0000F9015980E9014980D90119BDDE90E123D
:101EE0009847109059E117980F9016980E901598F2
:101EF0000D9014980C90119C0DA90EC9A04710903C
:101F00004BE11898009017980F9016980E9015981E
:101F10000D9014980C90119C0DA90EC9A04710901B
:101F20003BE1DDE91801CDE9000117980F90169803
:101F30000E9015980D9014980C90119C0DA90EC937
:101F4000A047109029E1DDE919211898CDE9012178
:101F5000009017980F9016980E9015980D90149861
:101F60000C90119C0DA90EC9A047109015E111E12C
:101F7000DDE9193218991B98CDE9013200910390DF
:101F800017980F9016980E9015980D9014980C9025
:101F9000119C0DA90EC9A0471090FEE0DDE91923A0
:101FA000DDE91B10CDE90123CDE90310189800905D
:101FB00017980F9016980E9015980D9014980C90F5
:101FC000119C0DA90EC9A0471090E6E0DDE91A2387
:101FD000DDE91C10CDE90223CDE90410DDE918018B
:101FE000CDE9000117980F9016980E9015980D9056
:101FF00014980C90119C0DA90EC9A0471090CCE02C
:10200000DDE91C321B991E98CDE90432039106903C
:10201000DDE919211898CDE90121009017980F905A
:1020200016980E9015980D9014980C90119C0DA96F
:102030000EC9A0471090B0E0DDE91C23DDE91E10B9
:10204000CDE90423CDE90610DDE9193218991B9872
:10205000CDE901320091039017980F9016980E90D9
:1020600015980D9014980C90119C0DA90EC9A047BD
:10207000109092E068E043E020E0FFE7DDE91E32E7
:102080001D992098CDE9063205910890DDE91923C4
:10209000DDE91B01CDE90123CDE90301189800908A
:1020A00017980F9016980E9015980D9014980C9004
:1020B000119C0DA90EC9A04710906EE0DDE91E131A
:1020C000DDE92002CDE90613CDE90802DDE91A2396
:1020D000DDE91C01CDE90223CDE90401DDE91801A8
:1020E000CDE9000117980F9016980E9015980D9055
:1020F00014980C90119C0DA90EC9A04710904CE0AB
:10210000DDE92031229A1F98CDE908310A92079023
:10211000DDE91B23DDE91D01CDE90323CDE905013F
:10212000DDE919211898CDE90121009017980F9049
:1021300016980E9015980D9014980C90119C0DA95E
:102140000EC9A047109028E0DDE92132209923989C
:10215000CDE9093208910B90DDE91D321C991F98D9
:10216000CDE9053204910790DDE91823DDE91A1065
:10217000CDE90023CDE9021017980F9016980E9024
:1021800015980D9014980C90119C0DA90EC9A0479C
:10219000109002E00020109000BF00BF0649109888
:1021A0000968086004480068001D0349086024B0FD
:1021B00010BD0000881700208417002000BF0A48C7
:1021C000006810F8080C0849096811F8041C90FB15
:1021D000F1F00549096801F8080C03480068001F80
:1021E0000149086000BF70478417002000BF0A48FB
:1021F000006850F8080C0849096851F8041C90FB65
:10220000F1F00549096841F8080C03480068001F0F
:102210000149086000BF70478417002000BF0B48C9
:10222000006830F9080C0949096831F9041C90FB71
:10223000F1F000B20549096821F8080C034800686C
:10224000001F0249086000BF70470000841700208B
:10225000084800680078084909680870064800685E
:10226000001D0549086003480068401C01490860DA
:102270007047000088170020841700200F4800686E
:1022800000780E490968497840EA01200B4909683D
:10229000897840EA014009490968C97840EA016043
:1022A00007490968086006480068001D044908607D
:1022B00002480068001D0149086070478817002027
:1022C000841700201049096809780F4A126852786B
:1022D00041EA02210C4A1268927841EA02410A4A14
:1022E0001268D27841EA02600178084A12681170D7
:1022F00006490968091D054A116003490968091D55
:10230000014A1160704700008817002084170020E0
:102310000449096851F8040C0178024A126802F86D
:10232000041C7047841700201049096809780F4A77
:102330001268527841EA02210C4A1268927841EA06
:1023400002410A4A1268D27841EA0260084A0168EA
:102350001268116006490968091D054A11600349A0
:102360000968091D014A11607047000088170020A4
:10237000841700200449096851F8040C024A0168D6
:10238000126842F8041C704784170020104909683D
:1023900009780F4A1268527841EA02210C4A126801
:1023A000927841EA02410A4A1268D27841EA026010
:1023B0000188084A1268118006490968091D054A02
:1023C000116003490968091D014A11607047000046
:1023D00088170020841700200449096851F8040C6C
:1023E0000188024A126822F8041C704784170020F2
:1023F0000B48006800780A490968497840EA0120DA
:1024000000B208490968088006480068001D0549AF
:10241000086003480068801C01490860704700009C
:10242000881700208417002000BF0B48006810F8B0
:10243000080C0949096811F8041C90FBF1F201FB32
:1024400012000549096801F8080C03480068001FDC
:102450000149086000BF70478417002000BF0B4887
:10246000006850F8080C0949096851F8041C90FBF1
:10247000F1F201FB12000549096841F8080C034814
:102480000068001F0149086000BF704784170020E2
:1024900000BF0B48006830F9080C0949096831F998
:1024A000041C90FBF1F201FB12000549096821F8B8
:1024B000080C03480068001F0149086000BF70470E
:1024C0008417002000BF0A48006810F8080C08496B
:1024D000096811F8041C48430549096801F8080C0B
:1024E00003480068001F0249086000BF70470000F1
:1024F0008417002000BF0A48006850F8080C0849FB
:10250000096851F8041C48430549096841F8080C5A
:1025100003480068001F0249086000BF70470000C0
:102520008417002000BF0A48006830F8080C0849EA
:10253000096831F8041C484300B20549096821F8CC
:10254000080C03480068001F0149086000BF70477D
:10255000841700207047000000BF0A48006810F888
:10256000080C0849096811F8041C08430549096862
:1025700001F8080C03480068001F0249086000BF0A
:10258000704700008417002000BF0A48006850F818
:10259000080C0849096851F8041C084305490968F2
:1025A00041F8080C03480068001F0249086000BF9A
:1025B000704700008417002000BF0A48006830F907
:1025C000080C0849096831F9041C084305490968E1
:1025D00021F8080C03480068001F0249086000BF8A
:1025E000704700008417002002480068001F01495E
:1025F000086070478417002000BF0A48006810F880
:10260000080C0849096811F8041C88400549096844
:1026100001F8080C03480068001F0249086000BF69
:10262000704700008417002000BF0A48006850F877
:10263000080C0849096811F8041C88400549096814
:1026400041F8080C03480068001F0249086000BFF9
:10265000704700008417002000BF0A48006830F867
:10266000080C0849096811F8041C884000B20549A3
:10267000096821F8080C03480068001F0149086038
:1026800000BF70478417002000BF0A48006810F898
:10269000080C0849096811F8041C08410549096833
:1026A00001F8080C03480068001F0249086000BFD9
:1026B000704700008417002000BF0A48006850F8E7
:1026C000080C0849096811F8041C08410549096803
:1026D00041F8080C03480068001F0249086000BF69
:1026E000704700008417002000BF0A48006830F9D6
:1026F000080C0849096811F8041C084105490968D3
:1027000021F8080C03480068001F0249086000BF58
:1027100070470000841700200748006810F8040C78
:102720000549096851F8081C087003480068001F33
:1027300001490860704700008417002007480068BE
:1027400050F8040C0549096851F8081C0860034852
:102750000068001F014908607047000084170020CE
:102760000748006830F8040C0549096851F8081C4E
:10277000088003480068001F014908607047000096
:102780008417002000BF0A48006810F8080C0849A8
:10279000096811F8041C401A0549096801F8080C79
:1027A00003480068001F0249086000BF704700002E
:1027B0008417002000BF0A48006850F8080C084938
:1027C000096851F8041C401A0549096841F8080CC9
:1027D00003480068001F0249086000BF70470000FE
:1027E0008417002000BF0A48006830F8080C084928
:1027F000096831F8041C401A00B20549096821F83B
:10280000080C03480068001F0149086000BF7047BA
:102810008417002000BF0A48006810F8080C084917
:10282000096811F8041C48400549096801F8080CBA
:1028300003480068001F0249086000BF704700009D
:102840008417002000BF0A48006850F8080C0849A7
:10285000096851F8041C48400549096841F8080C0A
:1028600003480068001F0249086000BF704700006D
:102870008417002000BF0A48006830F9080C084996
:10288000096831F9041C48400549096821F8080C19
:1028900003480068001F0249086000BF704700003D
:1028A0008417002030B5002200230021FE20FF24E1
:1028B000F84D2C700024F84D2C70F84C6478F84DCD
:1028C0002D78AC4203D0F54C6478FF2C7ED1F34CCC
:1028D0002478FF2C33D1F34C2478022C2FD0F24CE7
:1028E0002478F24D2D78AC4217D1EC4C6478EB4D46
:1028F000AD782C44E94DED782C44E84D2D792C44ED
:10290000E64D6D792C44E54DAD792C44E34DED79E0
:102910002C44E0B2E14C217A56E0E04C6478DF4D83
:10292000AD782C44DD4DED782C44DC4D2D792C44D4
:10293000DA4D6D792C44E0B2D84CA17944E0D74C03
:102940002478A02C40D1D74C2478032C3CD0D64CF2
:102950002478D64D2D78AC421ED1D04C2478CF4D62
:102960006D786D1E6C40CD4DAD786C40CB4DED78E3
:102970006C40CA4D2D796C40C84D6D796C40C74D87
:10298000AD796C40C54DED796C40C44D2D7A6C40ED
:10299000E0B2C24C617A17E0C04C2478BF4D6D782C
:1029A0006D1E6C40BD4DAD786C40BC4DED786C40FB
:1029B000BA4D2D796C40B94D6D796C40B74DAD79FC
:1029C0006C40E0B2B54CE179814200E01CE01BD1E3
:1029D000B24CA478752C18D19024AE4D2C700124E3
:1029E000B34D2C70AD4C2479B24D2C70AB4C647946
:1029F000B14D2C70A94CE478B04D2C702C46247845
:102A000004F08004AE4D2C704FE3A44CA478762CD7
:102A100018D190249F4D2C700224A54D2C709F4CF2
:102A20002479A84D2C709D4C6479A74D2C709B4C3B
:102A3000E478A24D2C702C46247804F08004A34D39
:102A40002C7032E3954CA478772C0BD19124914DC6
:102A50002C70924C2479974D2C70904C6479964D43
:102A60002C7022E38D4CA478202C3AD19024894DEF
:102A70002C708A4CE479914D2C70884CE47824B900
:102A8000864C24790CB900220EE00122834CE478B4
:102A9000884D2C70814C2479874D2C70874C24787C
:102AA00004F08004864D2C707C4C647924B97B4CF6
:102AB000A4790CB900230FE00223784C6479814D8E
:102AC0002C70764CA479804D2C707C4C247804F0CA
:102AD000400464007D4D2C7042EA0304744D2C7058
:102AE000E3E26E4CE478F4B96C4CA478072C18D26D
:102AF000DFE804F0100408140C1516000424654DDA
:102B00002C700FE00E24634D2C700BE00F24614DF0
:102B10002C7007E005245F4D2C7003E002E001E01B
:102B200000E000BFC1E25D4CA478512C33D008DC3A
:102B30001D2C0FD0402C11D0452C17D0502C36D145
:102B400015E0522C2FD0532C2ED0612C2DD0622C7E
:102B50002DD12BE0FF244F4D2C70A5E24F4C647912
:102B6000554D2C7080244B4D2C709DE29CE24B4CBB
:102B7000E478012C07D1494C64794F4D2C708224A4
:102B8000444D2C7006E0454CE478022C02D183249D
:102B9000404D2C7088E2414C6479474D2C70842460
:102BA0003C4D2C7080E27FE27EE27DE27CE23B4C99
:102BB000E478032C02D00024454D2C70374CE47887
:102BC000322C65D023DC102C63D00BDCA4F1020482
:102BD0000B2C7FD2DFE804F086E354F67EDB8EF523
:102BE000C3F4A600242C76D008DC122C74D0142C4C
:102BF00073D0202C38D0222C6CD17EE1282C6DD0C3
:102C00002A2C6CD02C2C6BD0302CF5D18DE14D2C96
:102C100067D014DC422C75D008DC332C73D0342CF4
:102C200072D0362C71D0402CE6D121E0442C6DD0EE
:102C3000482C6CD04A2C6BD04C2CDDD1E1E1542CCB
:102C400067D008DC4F2C79D0502C78D0512C77D01D
:102C5000522CD1D1F9E1802C0ED0902C71D0912C36
:102C600070D0922CC8D10EE201240A4D2C7019E2CA
:102C70000224084D2C7015E20324064D2C7011E23D
:102C8000064C24790B4D2C700624024D2C7009E261
:102C90007BE13FE09015002089150020941700206B
:102CA0008615002087150020150000200D0000204B
:102CB000190000208A1500208B1500208F15002098
:102CC000170000208C1500208D1500201800002012
:102CD00080150020DBE104E14DE034E019E148E13A
:102CE0002FE1E6E00724F14D2C70F14C2479F14DF1
:102CF0002C70D7E10824ED4D2C70ED4C6479EE4D2D
:102D00002C70CFE159E1ACE127E1ABE149E160E1B1
:102D10008FE182E10924E54D2C70E54C6479E64DA4
:102D20002C70BFE10A24E14D2C70E14C2479E14D77
:102D30002C70DF4C6479E04D2C70B3E1C9E054E1B4
:102D4000BFE098E19BE10B24D84D2C70D84C24793E
:102D5000D84D2C70D64C6479D74D2C70A2E10C2440
:102D6000D24D2C70D24C2479D24D2C70D04C647939
:102D7000D14D2C7096E10D24CC4D2C70CC4C247987
:102D8000CC4D2C70CA4C6479CB4D2C708AE1112447
:102D9000C64D2C70C64C6479C64D2C7082E110244F
:102DA000C24D2C70C24C6479C24D2C70C34C247837
:102DB0004CB1012C15D0022C3ED0032C69D143E03C
:102DC00055E150E16DE0BB4C2478FF2C03D1012488
:102DD000BA4D2C7004E00024B94D2C70B74D2C7006
:102DE0005DE0B44C2478FE2C03D0B24C2478FF2C48
:102DF00003D10224B14D2C701DE0AE4C2478FD2C83
:102E000006D10124AE4D2C700224AC4D2C7012E082
:102E1000A84C2478CD2C09DBA64C2478D02C05DCDA
:102E20000024A74D2C70A54D2C7004E00024A44D67
:102E30002C70A24D2C7032E09E4C2478A14D2C7049
:102E400003249E4D2C702AE09D4C2478012C03D144
:102E500000249B4D2C701BE0964C2478FF2C04D151
:102E6000984C2478984D2C700DE0924C2478FE2CD0
:102E700009D1904C2478954D2C702C462478062C42
:102E800001DD02242C7000248C4D2C708C4D2C7094
:102E900005E00024894D2C70894D2C7000BF00BFC7
:102EA00000E11224814D2C70814C6479814D2C708D
:102EB000F8E013247D4D2C707D4C64797D4D2C7091
:102EC000F0E01424794D2C70794C6479794D2C7094
:102ED000E8E01524754D2C70754C6479754D2C7097
:102EE000E0E01724714D2C70714C2479714D2C70D9
:102EF0006F4C6479704D2C70D4E018246B4D2C709D
:102F00006B4C24796B4D2C70694C64796A4D2C7034
:102F1000C8E01924654D2C70654C2479654D2C70E2
:102F2000634C6479644D2C70BCE01A245F4D2C70A6
:102F30005F4C24795F4D2C705D4C64795E4D2C7034
:102F4000B0E01B24594D2C70594C2479594D2C70EC
:102F5000574C6479584D2C70A4E01C24534D2C70B0
:102F6000534C2479534D2C70514C6479524D2C7034
:102F700098E01D244D4D2C704D4C24794D4D2C70F6
:102F80004B4C64794C4D2C708CE01E24474D2C70BA
:102F9000474C2479474D2C70454C6479464D2C7034
:102FA00080E01F24414D2C70414C2479414D2C7000
:102FB0003F4C6479404D2C7074E020243B4D2C70C4
:102FC0003B4C24793B4D2C70394C64793A4D2C7034
:102FD00068E02124354D2C70354C2479354D2C700A
:102FE000334C6479344D2C705CE022242F4D2C70CE
:102FF0002F4C24792F4D2C702D4C64792E4D2C7034
:1030000050E02324294D2C70294C2479294D2C7013
:10301000274C6479284D2C7044E02424234D2C70D7
:10302000234C2479234D2C70214C6479224D2C7033
:1030300038E025241D4D2C701D4C24791D4D2C701D
:103040001B4C64791C4D2C702CE02624174D2C70E1
:10305000174C2479174D2C70154C6479164D2C7033
:1030600020E01FE01EE0FF24104D2C701AE0FF242A
:103070000E4D2C7016E0FF240C4D2C7012E0FF2436
:103080000A4D2C700EE01624084D2C700AE0084CF6
:10309000E4781CB1FF24054D2C7002E00024034DA0
:1030A0002C7000BF00BF00BF00BF30BD90150020D6
:1030B000941700208A1500208B1500208015002011
:1030C000811500208215002086150020881500201B
:1030D00008B50121042000F0D7F80120ADF8000068
:1030E00000208DF8030003208DF802006946024895
:1030F000FEF7E6F808BD00000008014000B585B005
:103100000121480200F0C0F8002000908DF8040072
:1031100001208DF805004FF46020029000200390FC
:1031200001208DF8100069461448FDF7E5FA0723E1
:10313000012200211148FDF7C9FB01210F48FDF7CD
:1031400015FA01210D48FDF7C7F90C48FDF7ACFC55
:1031500000BF0A48FDF790FA0028FAD10748FDF7AA
:1031600027FD00BF0548FDF747FA0028FAD10121E5
:103170000248FDF7D3FC05B000BD0000002401406B
:1031800008B50B208DF8000002208DF801008DF8A5
:10319000020000208DF803006846FEF7EBFC0121D9
:1031A000084600F02BF81148FDF7C2FD1048114900
:1031B000086011484860002088601020C860002026
:1031C000086180204861400088618000C86100205B
:1031D00008624FF400504862002088620348FDF7FF
:1031E00017FF01210148FDF735FD08BD0800024029
:1031F0004C240140801B0020601B002070B5044659
:103200000D4640F2575024EA000008B904B104E02A
:1032100040F22B410CA001F0C3F80DB1012D00D1FB
:1032200004E040F22C4108A001F0BAF82DB1154895
:10323000406920431349486104E012484069A043B3
:103240001049486170BD00004C6962726172696525
:10325000735C53544D3332463130785F537464504D
:1032600065726970685F4472697665725C737263D7
:103270005C73746D3332663130785F7263632E63D2
:10328000000000000010024070B504460D461048D2
:10329000204008B904B104E040F24A410DA001F019
:1032A0007FF80DB1012D00D104E040F24B4109A09F
:1032B00001F076F82DB116488069204314498861E1
:1032C00004E013488069A0431149886170BD000083
:1032D0000200C0FF4C69627261726965735C53548D
:1032E0004D3332463130785F537464506572697083
:1032F000685F4472697665725C7372635C73746D47
:103300003332663130785F7263632E6300000000F1
:103310000010024010B501210420FFF7B5FF012184
:103320008803FFF7B1FF10BD30B500210022002453
:1033300000232D4D6D6805F00C0121B1042905D045
:10334000082923D105E0294D056022E0274D0560BD
:103350001FE0254D6D6805F47012234D6D6805F46E
:103360008034022505EB92421CB9214D554305607E
:103370000BE01D4D6D6805F400351DB11C4D554326
:10338000056002E0194D5543056002E0174D0560E8
:1033900000BF00BF144D6D6805F0F0010909154D1F
:1033A0006B5C0568DD4045600F4D6D6805F4E061BC
:1033B000090A104D6B5C4568DD4085600A4D6D68FB
:1033C00005F46051C90A0B4D6B5C4568DD40C56072
:1033D000054D6D6805F44041890B074D6B5CC56870
:1033E000B5FBF3F5056130BD0010024000127A0014
:1033F00000093D00F415002004160020704710B5A8
:1034000000F002F810BD00000CB500200190009003
:103410003348006840F480303149086000BF3048CC
:10342000006800F4003000900198401C0190009862
:1034300018B90198B0F5A06FF1D12948006800F4DF
:10344000003010B10120009001E0002000900098B1
:10345000012843D12348006840F01000214908604A
:103460000846006820F0030008600846006840F045
:10347000020008601A4840681949486008464068D8
:1034800048600846406840F48060486008464068EC
:1034900020F47C1048600846406840F4E81048601A
:1034A0000846006840F08070086000BF0C48006863
:1034B00000F000700028F9D00948406820F00300AF
:1034C000074948600846406840F00200486000BF75
:1034D0000348406800F00C000828F9D10CBD00003A
:1034E000001002400020024010B505F085FC07F0F6
:1034F00005F905F099FC10BD10B51348006840F0BF
:1035000001001149086008464068104908400E490A
:103510004860084600680E4908400B4908600846A4
:10352000006820F4802008600846406820F4FE000F
:1035300048604FF41F008860FFF761FF4FF00060A4
:103540000449086010BD0000001002400000FFF8B0
:10355000FFFFF6FE08ED00E010B5144C05F04CFC42
:1035600040F22551206800F067F940B10121104870
:1035700005F010FB40F22551206800F01BF840F2E6
:103580002661206800F058F920B140F226612068D9
:1035900000F010F80821206800F0D6F8012802D1C8
:1035A000034807F067FB05F03FFC10BDD81500206D
:1035B000AC1B00202DE9F04104460D4600260027F3
:1035C000224884420BD02248844208D021488442B9
:1035D00005D02148844202D02048844200D104E032
:1035E00040F20A411EA000F0DBFE40F22660854258
:1035F0000BD040F22550854207D040F64600854268
:1036000003D040F66A10854200D104E040F20B413D
:1036100013A000F0C5FE40F66A1085420ED10B489B
:10362000844205D00A48844202D00A48844200D12C
:1036300004E040F20F410AA000F0B2FE2E12012079
:10364000B04087B2F8432080BDE8F08100380140E7
:103650000044004000480040004C00400050004042
:103660004C69627261726965735C53544D333246C2
:103670003130785F5374645065726970685F44726A
:10368000697665725C7372635C73746D3332663134
:1036900030785F75736172742E63000070B50446F4
:1036A0000D46154884420BD01448844208D0144873
:1036B000844205D01348844202D01348844200D18A
:1036C00004E04FF4B17111A000F06AFE0DB1012DBC
:1036D00000D104E040F263110CA000F061FE25B1BE
:1036E000A08940F40050A08104E0A0894DF6FF714C
:1036F0000840A08170BD0000003801400044004037
:1037000000480040004C0040005000404C6962728C
:1037100061726965735C53544D3332463130785F62
:103720005374645065726970685F4472697665723B
:103730005C7372635C73746D3332663130785F75BD
:10374000736172742E63000070B505460C46002646
:10375000254885420BD02548854208D0244885421B
:1037600005D02448854202D02348854200D104E098
:1037700040F26E3121A000F013FE012C13D0802CFA
:1037800011D0402C0FD0202C0DD0102C0BD0B4F524
:10379000807F08D0B4F5007F05D0082C03D0042C1E
:1037A00001D0022C00D104E040F26F3113A000F0F0
:1037B000F7FDB4F5007F0ED10B48854205D00B48CC
:1037C000854202D00A48854200D104E040F27331BC
:1037D0000AA000F0E5FD2888204008B1012600E09D
:1037E0000026304670BD0000003801400044004013
:1037F00000480040004C0040005000404C6962729C
:1038000061726965735C53544D3332463130785F71
:103810005374645065726970685F4472697665724A
:103820005C7372635C73746D3332663130785F75CC
:10383000736172742E6300002DE9F04705460C4653
:1038400000270026B046B1463A4885420BD03A4898
:10385000854208D03948854205D03948854202D092
:103860003848854200D104E040F2C13136A000F072
:1038700097FD282C20D040F2277084421CD040F2C3
:103880002660844218D040F22550844214D040F281
:103890002440844210D040F6460084420CD040F6CA
:1038A0006A10844208D0B4F5587F05D0B4F5187F6B
:1038B00002D0B4F5B07F00D104E040F2C23122A0C2
:1038C00000F06EFD40F66A1084420ED11948854220
:1038D00005D01948854202D01848854200D104E03D
:1038E00040F2C63118A000F05BFDC4F3421804F0AA
:1038F0001F06012000FA06F6B8F1010F02D1A889CF
:10390000064007E0B8F1020F02D1288A064001E024
:10391000A88A06402712012000FA07F728880740E6
:103920001EB117B14FF0010901E04FF00009484600
:10393000BDE8F087003801400044004000480040E6
:10394000004C0040005000404C6962726172696531
:10395000735C53544D3332463130785F5374645046
:1039600065726970685F4472697665725C737263D0
:103970005C73746D3332663130785F757361727465
:103980002E6300002DE9F04705460C4617464FF020
:103990000008C246C1460026384885420BD0384848
:1039A000854208D03748854205D03748854202D045
:1039B0003648854200D104E040F2891134A000F07D
:1039C000EFFC282C19D040F22770844215D040F229
:1039D0002660844211D040F2255084420DD040F23E
:1039E0002440844209D040F64600844205D040F687
:1039F0006A10844201D0602C00D104E04FF4C571FC
:103A000023A000F0CDFC0FB1012F00D104E040F263
:103A10008B111FA000F0C4FC40F66A1084420ED146
:103A20001648854205D01648854202D01548854281
:103A300000D104E040F28F1115A000F0B1FC2E4639
:103A4000C4F3421804F01F0A012000FA0AF9B8F181
:103A5000010F01D10C3605E0B8F1020F01D110368B
:103A600000E0143627B1306840EA0900306003E016
:103A7000306820EA09003060BDE8F0870038014076
:103A80000044004000480040004C0040005000400E
:103A90004C69627261726965735C53544D3332468E
:103AA0003130785F5374645065726970685F447236
:103AB000697665725C7372635C73746D3332663100
:103AC00030785F75736172742E6300002DE9F047E2
:103AD00086B005460C460026B24600BFB146002718
:103AE0006B4885420BD06B48854208D06A488542B6
:103AF00005D06A48854202D06948854200D103E07A
:103B0000B82168A000F04CFC206820B174492068FE
:103B1000884200D203E0B92162A000F041FCA088F5
:103B200018B1A088B0F5805F00D103E0BA215DA094
:103B300000F036FCE08858B1E088B0F5805F07D02F
:103B4000E088B0F5005F03D0E088B0F5405F00D1B9
:103B500003E0BB2153A000F023FC208938B1208969
:103B6000B0F5806F03D02089B0F5C06F00D103E0BD
:103B7000BC214CA000F014FC60894FF6F3710840A2
:103B800010B9608900B103E0BD2146A000F008FC37
:103B9000A08958B1A089B0F5807F07D0A089B0F581
:103BA000007F03D0A089B0F5407F00D103E0BE21A3
:103BB0003CA000F0F5FBA08968B13548854205D0EE
:103BC0003448854202D03448854200D103E0C22106
:103BD00034A000F0E5FB2F462E8A4CF6FF7006401D
:103BE000E08806432E82AE894EF6F3100640A08888
:103BF00021890843618908430643AE81AE8A4FF6A6
:103C0000FF400640A0890643AE8201A8FFF78CFB67
:103C10001F48874202D1DDF810A001E0DDF80CA0BA
:103C2000A88900F4004040B10AEBCA0000EB0A107A
:103C300021684900B0FBF1F807E00AEBCA0000EB8D
:103C40000A1021688900B0FBF1F86420B8FBF0F09D
:103C500006013009642101FB1089A88900F40040A5
:103C600040B1322000EBC900B0FBF1F000F00700DA
:103C7000064308E0322000EB09106421B0FBF1F0AC
:103C800000F00F0006432E8106B0BDE8F08700006B
:103C9000003801400044004000480040004C004013
:103CA000005000404C69627261726965735C5354E4
:103CB0004D3332463130785F5374645065726970A9
:103CC000685F4472697665725C7372635C73746D6D
:103CD0003332663130785F75736172742E63000021
:103CE00021AA440000BFFEE700487047901700205B
:103CF000014609B900207047C8B220B1C8B20E4AC7
:103D0000105C401CF7E701F47F4028B10A48C1F37A
:103D10000722805C0930EEE701F47F0028B10648F5
:103D2000C1F30742805C1130E5E7034800EB116006
:103D300000781930DFE70000F4B3000802E008C89B
:103D4000121F08C1002AFAD170477047002001E015
:103D500001C1121F002AFBD1704700000349086807
:103D6000884201D0012070470020FCE7EC160020BB
:103D700070B594B004464C22064901A8FCF76CFAD1
:103D8000256802E0A5F10C062D68A542FAD10020B5
:103D900014B070BDCCB6000870B5044625680BE0C1
:103DA000A5F10C0606F1140005F079F918B906F131
:103DB000140006F0B3FE2D68A542F1D1002070BDBD
:103DC00070B5044625680BE0A5F10C0606F1140059
:103DD00005F065F918B906F1140006F09FFE2D688C
:103DE000A542F1D1002070BD70B50446256808E0F9
:103DF000A5F10C06706B18B106F12C0006F08EFED2
:103E00002D68A542F4D1002070BD70B50446256828
:103E10000BE0A5F10C0606F1140005F040F918B905
:103E200006F1140006F07AFE2D68A542F1D10020BB
:103E300070BD01460A6802E0A2F10C0312688A42D2
:103E4000FAD10020704770B5044625680BE0A5F153
:103E50000C0606F1140005F022F918B906F1140059
:103E600006F05CFE2D68A542F1D1002070BD10B5B2
:103E70000246136814E0A3F10C0191F83400012804
:103E800007D091F83400022803D091F8340000B133
:103E900000BF8C6A00E0641C20782328FBD01B68DC
:103EA0009342E8D1002010BD01460A6802E0A2F169
:103EB0000C0312688A42FAD10020704738B50446D4
:103EC0003CB90020009000BF9DF800000028FBD006
:103ED00000BFA16AE069884205D9A18DA06A0844A3
:103EE000E169884206D2FCF73FF9054600BF002D84
:103EF000FDD100E000BF38BD2DE9FC5F04468B46D4
:103F000016461F46DDE90C9ADDE90E5804F114004F
:103F10004060006000BF26626762C4F82890A4F881
:103F20002CA0A28D2321A06A05F015FAB4F82CC0AC
:103F3000A36A63441A1F144BD4E9080104F004FF78
:103F4000E061202D07DB0020019000BF9DF80400F8
:103F50000028FBD000BF3034A5716571C4F814800F
:103F6000C4F81880002020602071A064E064303C18
:103F700000902346054A2146019004F14C0006F0CA
:103F800062FC0020BDE8FC9F49A3000845A600088C
:103F90002DE9F04704460E4617469846DDF8209076
:103FA00084F80990607A20F001006072E66127626F
:103FB0000020A062C4F82480002506E004F114016A
:103FC00001EBC50005F022F86D1C012DF6DBBDE804
:103FD000F08710B50246002001460EE002F11403FE
:103FE00003EBC100D0E900436360D0E900342360F3
:103FF0004060006000BF481C01460129EEDB10BD97
:104000002DE9F84304460E4617464FF0000904B167
:104010003EB90020009000BF9DF800000028FBD0B2
:1040200000BFE56C3DB90020009000BF9DF8000086
:104030000028FBD000BFFCF797F8804628680128CD
:104040000AD001202860206C01233A463146D0F87E
:1040500010C02046E04701E06FF006094046FCF73B
:1040600087F8B9F1000F02D13846BDE8F883484619
:1040700005F0D8FF0020F8E72DE9F0470446884610
:104080001646256D4FF0FF3332464146281D04F099
:10409000E7FA0746CFB9FCF767F881462868012898
:1040A0000DD0012028604846FCF762F8206C0223FE
:1040B00032464146D0F810C02046E04702E048466C
:1040C000FCF756F83046BDE8F087384605F0AAFF01
:1040D0000020F8E72DE9F84F06460F4615463EB991
:1040E0000020009000BF9DF800000028FBD000BF1A
:1040F000A846F46C3CB90020009000BF9DF8000079
:104100000028FBD000BF22E0FCF72EF88246E088B2
:10411000A18888420FD0E188206810F80190E088DB
:10412000401CE080E188B06CC0F38F20814206DB48
:104130000020E08003E05046FCF71AF809E0504602
:10414000FCF716F887F800907F1C6D1E00BF002D4D
:10415000DAD100BFA8EB0500BDE8F88F2DE9F843E0
:1041600005460E4614463DB90020009000BF9DF85C
:1041700000000028FBD000BFA0462F6D3FB90020F3
:10418000009000BF9DF800000028FBD000BF0FE0AA
:104190003178286C826828469047401C28B94FF037
:1041A000FF31384604F0C9F802E0761C641E00BFF7
:1041B000002CEDD1A8EB0400BDE8F8832DE9F8430D
:1041C00006460F4614463EB90020009000BF9DF8F9
:1041D00000000028FBD000BFA0460AE0306CC16898
:1041E0003046884705463D707F1C641E0A2D00D16D
:1041F00001E0002CF2D100BFA8EB0400BDE8F88379
:10420000F8B504460E4615463CB90020009000BFA4
:104210009DF800000028FBD000BF2F4612E0307848
:104220000A2808D1207E00F0400020B1206C0D212A
:104230008268204690473178206C826820469047FB
:10424000761C6D1E002DEAD1781BF8BD10B5FDF768
:104250004DFC044640F2EA60844205D30122082165
:104260001D48FDF7BBFB08E040F2EA60844204D23F
:10427000002208211848FDF7B1FB40F28660844215
:1042800005D3012204211448FDF7A8FB04E0002215
:1042900004211148FDF7A2FB40F22260844205D3BD
:1042A000012202210C48FDF799FB04E000220221C3
:1042B0000948FDF793FB40F2BE50844205D301222A
:1042C00011460548FDF78AFB04E00022012102485F
:1042D000FDF784FB10BD00000010014008B501216E
:1042E0001020FEF7D1FF10208DF8030003208DF879
:1042F00002000F20ADF8000069460A48FCF7E0FF15
:1043000001210848FDF714FB02210648FDF710FBC8
:1043100004210448FDF70CFB08210248FDF708FBC7
:1043200008BD0000001001402DE9F04106460F468F
:10433000182002F0E5FF05464DB3164890F900003D
:104340000F2822DA002403E0385D2855601CC4B22F
:10435000B442F9DB002068610F48006810B10F48D3
:10436000006820B90C4805600C48056004E00A4864
:10437000006845610848056006480078401C40B266
:10438000044908700120BDE8F0810220FBE700200D
:10439000F9E70000A8150020B0150020AC1500209A
:1043A00000BFFEE77047000010B500240549142047
:1043B00000F00AF8012802D1FDF7AAFB01242046EB
:1043C00010BD0000941700202DE9F04106460F466D
:1043D0001448006800B31348056800684069114933
:1043E0000860002403E0285D3855601CC4B2B44264
:1043F000F9DB284602F076FF0B480078401E40B2F9
:1044000009490870084690F90000002801DA0020E8
:1044100008700120BDE8F08100200449086000BF59
:10442000F8E70000AC150020A8150020B01500200A
:104430007047024613680BB91160704710688842D4
:1044400002D948601160F8E7106807E043688B42C2
:1044500000D905E0436803B902E040680028F5D1BF
:1044600000BF43680BB143684B60416000BFE4E7A5
:1044700030B503464A681C688C4201D1002009E02F
:10448000186804E044688C4200D102E040680028CB
:10449000F8D100BFE0B10468044408348C4217D15D
:1044A00072B10C680C440834944209D10C68156848
:1044B0002C44103405682C4404605468446014E0B3
:1044C00005680C6808342C4404604C6844600CE0B7
:1044D0005AB10C680C440834944206D10D68146833
:1044E00008342C440C6054684C6030BD024610689F
:1044F000884204D14B68136000234B6070471068FA
:1045000006E043688B4202D14B68436002E040689A
:104510000028F6D100BF00BFF0E700F108035A18E9
:104520000368083B5B1A1360016043685360426094
:104530007047000010B50446002C01F0218320696B
:1045400010B12069FFF7F6FF20781C2881F00E8358
:10455000DFE810F00C0B1C00D901EF01F0011B0289
:104560001A0242026A029502C002EB0216034103DC
:104570006C039703C203ED031A0439040C0BE70420
:1045800022065B070E09D80A0B0BC10AA07800F0BF
:10459000040048B300BF2420FA4909680870F948AC
:1045A0000068401CF749086000BF00BF00BFA0685A
:1045B000007A09680870A0680089000AF149096852
:1045C0004870A0688068000CEE4909688870A0688F
:1045D0008068000EEB490968C87000BFE9480068B0
:1045E000001DE84908608CE1A07800F00200002876
:1045F0007ED0A06800287CD0017AC91E0C293ED24A
:10460000DFE801F006077C3E3F7D78797E7A7B7F8C
:1046100000BFA17801F0080151B100BF2421D94A9F
:1046200012681170D7490968491CD64A11600AE01E
:1046300000BF2521D34A12681170D2490968491C6C
:10464000D04A116000BF00BF00BF017BCD4A126895
:1046500011708189090ACB4A12685170C168090C2E
:10466000C84A12689170C168090EC64A1268D170B2
:1046700000BFC4490968091DC24A116000BF77E044
:1046800000BFA17801F0080151B100BF2421BD4A4B
:1046900012681170BB490968491CBA4A11600AE0E6
:1046A00000BF2621B74A12681170B6490968491C33
:1046B000B44A116000BF00BF00BF017BB14A12685D
:1046C00011708189090AAF4A12685170C168090CDA
:1046D000AC4A12689170C168090EAA4A1268D1707A
:1046E00000BFA8490968091DA64A116000BF3FE044
:1046F00040E03EE000BF00BF00BF00BF00BF00BF02
:1047000000BFA17801F0080151B100BF24219D4AEA
:10471000126811709B490968491C9A4A11600AE0A5
:1047200000BF2721974A1268117096490968491CF1
:10473000944A116000BF00BF00BF017B914A12681C
:1047400011708189090A8F4A12685170C168090C79
:104750008C4A12689170C168090E8A4A1268D17039
:1047600000BF88490968091D864A116000BF00BF63
:1047700000BFC6E0A06800287ED0417CC91E0C297D
:1047800040D2DFE801F00607804041817C7D827ED7
:104790007F8300BFA17801F0080151B100BF24213F
:1047A000784A1268117077490968491C754A116086
:1047B0000AE000BF2521734A126811707149096827
:1047C000491C704A116000BF00BF00BF00F1140116
:1047D0006C4A12681170090A6A4A1268517000F135
:1047E0001401090C674A1268917000F11401090E56
:1047F000644A1268D17000BF62490968091D614AA4
:10480000116000BF7BE000BFA17801F0080151B149
:1048100000BF24215B4A126811705A490968491C7B
:10482000584A11600AE000BF2621564A12681170EA
:1048300054490968491C534A116000BF00BF00BFBA
:1048400000F114014F4A12681170090A4D4A1268AA
:10485000517000F11401090C4A4A1268917000F17C
:104860001401090E474A1268D17000BF4549096812
:10487000091D444A116000E042E000BF3FE000BF74
:1048800000BF00BF00BF00BF00BF00BFA17801F0A4
:10489000080151B100BF24213A4A12681170394908
:1048A0000968491C374A11600AE000BF2721354AD0
:1048B0001268117033490968491C324A116000BFFF
:1048C00000BF00BF00F114012E4A12681170090ADE
:1048D0002C4A1268517000F11401090C294A12681F
:1048E000917000F11401090E264A1268D17000BFC0
:1048F00024490968091D234A116000BF00BF00BF99
:1049000000BF01F037B900BF22201E4909680870B6
:104910001C480068401C1B49086000BF00BF20798C
:104920000968087017480068401C1649086000BFF5
:10493000E7E700BF00BF242012490968087011484A
:104940000068401C0F49086000BF00BF00BF20790D
:1049500009680870A088000A0A49096848706068F8
:10496000000C0849096888706068000E05490968EC
:10497000C87000BF03480068001D0249086000BFFE
:10498000BFE700003417002000BF00BF2420FD490E
:1049900009680870FB480068401CFA49086000BFBD
:1049A00000BF00BF207909680870A088000AF54997
:1049B000096848706068000CF2490968887060688E
:1049C000000EF0490968C87000BFEE480068001D7D
:1049D000EC49086000BF94E76078012809D100BF66
:1049E000E84909680870E7480068401CE549086024
:1049F00019E06078022809D100BFE249096808700F
:104A0000E0480068401CDF4908600CE0607803283B
:104A100009D100BFDB4909680870DA480068401C0A
:104A2000D849086000BF6CE7607801280AD100BF50
:104A30000420D44909680870D2480068401CD14954
:104A400008601BE0607802280AD100BF0520CD492C
:104A500009680870CB480068401CCA4908600DE02E
:104A6000607803280AD100BF0620C649096808708B
:104A7000C4480068401CC349086000BF41E7607833
:104A800001280AD100BF0D20BE4909680870BD4841
:104A90000068401CBB4908601BE0607802280AD10E
:104AA00000BF0E20B74909680870B6480068401C6E
:104AB000B44908600DE0607803280AD100BF0F20D8
:104AC000B04909680870AF480068401CAD490860EB
:104AD00000BF16E7607801280AD100BF0720A94966
:104AE00009680870A7480068401CA64908601BE0D8
:104AF000607802280AD100BF0820A249096808701E
:104B0000A0480068401C9F4908600DE060780328B9
:104B10000AD100BF09209B490968087099480068BC
:104B2000401C9849086000BFEBE6607801280AD174
:104B300000BF0A2093490968087092480068401C29
:104B4000904908601BE0607802280AD100BF0B2062
:104B50008C49096808708B480068401C89490860C6
:104B60000DE0607803280AD100BF0C208549096850
:104B7000087084480068401C8249086000BFC0E695
:104B8000607801280AD100BF10207E4909680870AA
:104B90007C480068401C7B4908601BE06078022864
:104BA0000AD100BF1120774909680870754800686C
:104BB000401C744908600DE0607803280AD100BFEA
:104BC00012207049096808706E480068401C6D49E1
:104BD000086000BF95E6607801280AD100BF132065
:104BE00068490968087067480068401C65490860A2
:104BF0001BE0607802280AD100BF142061490968CF
:104C0000087060480068401C5E4908600DE06078EC
:104C100003280AD100BF15205A490968087059486D
:104C20000068401C5749086000BF6AE660780128A8
:104C30000AD100BF1620534909680870514800681E
:104C4000401C504908601BE0607802280AD100BF70
:104C500017204C49096808704A480068401C4949B7
:104C600008600DE0607803280AD100BF182045498C
:104C70000968087043480068401C4249086000BF4A
:104C80003FE6607801280AD100BF19203D49096834
:104C900008703C480068401C3A4908601BE0607896
:104CA00002280AD100BF1A20364909680870354821
:104CB0000068401C334908600DE0607803280AD181
:104CC00000BF1B202F49096808702E480068401C4F
:104CD0002C49086000BF14E6607801280AD100BFA3
:104CE0001C2028490968087026480068401C25498E
:104CF00008601BE0607802280AD100BF1D2021490E
:104D0000096808701F480068401C1E4908600DE0D3
:104D1000607803280AD100BF1E201A49096808706C
:104D200018480068401C1749086000BFE9E5607832
:104D300001280AD100BF1F201249096808701148D4
:104D40000068401C0F4908601BE0607802280AD107
:104D500000BF20200B49096808700A480068401C01
:104D6000084908600DE0607803280AD100BF2120BF
:104D700004490968087003480068401C014908603C
:104D800000BFBEE53417002000212269D2B122699C
:104D9000D06801E0491CC0680028FBD100BF2C226C
:104DA000FC4B1B681A70FB4A1268521CF94B1A60C4
:104DB00000BF00BF1B681970F64A1268521CF54B01
:104DC0001A6000BF9DE52069C0B320690078012802
:104DD00050D120694078012804D0022818D0032837
:104DE00043D12CE000BF2820EA4909680870E9484F
:104DF0000068401CE749086000BF00BF2D2009681B
:104E00000870E4480068401CE249086000BF30E0D8
:104E100000BF2920DF4909680870DE480068401C8F
:104E2000DC49086000BF00BF2E2009680870D9481F
:104E30000068401CD749086000BF1AE01AE000BFB4
:104E40002A20D44909680870D2480068401CD1491A
:104E5000086000BF00BF2F2009680870CD480068B7
:104E6000401CCC49086000BF03E0032000F0CCFEEA
:104E700000BF55E020690078192851D12069407899
:104E800000F00F00012804D0022818D0032842D1D6
:104E90002BE000BF2820BF4909680870BD480068A2
:104EA000401CBC49086000BF00BF2D200968087085
:104EB000B8480068401CB749086000BF2FE000BF39
:104EC0002920B44909680870B2480068401CB149FB
:104ED000086000BF00BF2E2009680870AD48006858
:104EE000401CAC49086000BF19E000BF2A20A94956
:104EF00009680870A7480068401CA649086000BF00
:104F000000BF2F2009680870A2480068401CA14912
:104F1000086000BF03E0032000F076FE00BF00BF82
:104F2000EFE4206900287DD020690078012879D13C
:104F3000216988686178012904D002295DD003299C
:104F40005AD1BDE000BF2521924A126811709149E3
:104F50000968491C8F4A116000BF00BF00BF00F103
:104F6000140112681170090A8A4A1268517000F11E
:104F70001401090C874A1268917000F11401090E9E
:104F8000844A1268D17000BF82490968091D814AAC
:104F9000116000BF00BF2221126811707D490968AD
:104FA000491C7C4A116000BF00BF012112681170CA
:104FB00078490968491C774A116000BF00BF012188
:104FC0001268117073490968491C724A116000BF68
:104FD00000BF2821126811706E490968491C6D4A8A
:104FE000116000BF00BF2F21126811706949096864
:104FF000491C684A116000BFC9E000BF2621654A0C
:105000001268117063490968491C624A116000BF47
:1050100000BF00BF00F1140112681170090A5D4A57
:10502000126800E0B5E0517000F11401090C594A12
:105030001268917000F11401090E564A1268D1707D
:1050400000BF54490968091D524A116000BF00BFE2
:105050002321126811704F490968491C4D4A11609B
:1050600000BF00BF00BF0121126811700021494A32
:105070001268517000BF47490968891C454A116090
:1050800000BF00BF02211268117042490968491C23
:10509000404A116000BF00BF2921126811703D49CC
:1050A0000968491C3B4A116000BF00BF2F211268EC
:1050B000117038490968491C364A116000BF66E022
:1050C00000BF2721334A1268117032490968491C10
:1050D000304A116000BF00BF00BF00F11401126828
:1050E0001170090A2B4A1268517000F11401090C61
:1050F000284A1268917000F11401090E254A1268BD
:10510000D17000BF23490968091D224A116000BF00
:1051100000BF2421126811701E490968491C1D4AEC
:10512000116000BF00BF00BF012112681170002193
:10513000184A12685170174A12689170154A12681D
:10514000D17000BF13490968091D124A116000BFE0
:1051500000BF0321126811700E490968491C0D4AED
:10516000116000BF00BF2A21126811700949096847
:10517000491C084A116000BF00BF2F21126811703E
:1051800004490968491C034A116000BF00BF00BF01
:1051900000BF20E434170020206900287ED0206959
:1051A000007801287AD1216988686178012904D0C2
:1051B00002295DD003295AD1BDE000BF2521FE4A56
:1051C00012681170FC490968491CFB4A116000BF54
:1051D00000BF00BF00F1140112681170090AF64AFD
:1051E0001268517000F11401090CF34A12689170B1
:1051F00000F11401090EF04A1268D17000BFEE49A7
:105200000968091DEC4A116000BF00BF2221126825
:105210001170E9490968491CE74A116000BF00BFE5
:10522000012112681170E4490968491CE24A1160C1
:1052300000BF00BF042112681170DF490968491CD2
:10524000DD4A116000BF00BF282112681170DA49E1
:105250000968491CD84A116000BF00BF2F2112689D
:105260001170D5490968491CD34A116000BFC9E0D3
:1052700000BF2621D04A12681170CF490968491C25
:10528000CD4A116000BF00BF00BF00F114011268D9
:105290001170090AC84A1268517000E0B4E000F1C8
:1052A0001401090CC44A1268917000F11401090E2E
:1052B000C14A1268D17000BFBF490968091DBE4AC2
:1052C000116000BF00BF232112681170BA4909683C
:1052D000491CB94A116000BF00BF00BF012112681C
:1052E00011700021B44A1268517000BFB2490968B8
:1052F000891CB14A116000BF00BF052112681170FE
:10530000AD490968491CAC4A116000BF00BF2921A2
:1053100012681170A8490968491CA74A116000BFAA
:1053200000BF2F2112681170A3490968491CA24AC5
:10533000116000BF66E000BF27219F4A126811700C
:105340009D490968491C9C4A116000BF00BF00BF0D
:1053500000F1140112681170090A974A126851701D
:1053600000F11401090C944A1268917000F11401C3
:10537000090E914A1268D17000BF8F490968091D52
:105380008D4A116000BF00BF2421126811708A4944
:105390000968491C884A116000BF00BF00BF012195
:1053A000126811700021844A12685170824A126892
:1053B0009170814A1268D17000BF7F490968091D48
:1053C0007D4A116000BF00BF0621126811707A4942
:1053D0000968491C784A116000BF00BF2A21126881
:1053E000117075490968491C734A116000BF00BFFC
:1053F0002F211268117070490968491C6E4A1160AA
:1054000000BF00BF00BF00BFB4E3206900287DD00B
:1054100020690078012879D121698868617801299B
:1054200004D0022973D0032972D110E100BF2421D6
:10543000614A1268117060490968491C5E4A11602E
:1054400000BF00BF00BF00F1140112681170090A0B
:10545000594A1268517000F11401090C564A126839
:10546000917000F11401090E534A1268D17000BF07
:1054700051490968091D504A116000BF00BF25212C
:10548000126811704C490968491C4B4A116000BFF1
:1054900000BF00BF00F1140112681170090A464AEA
:1054A0001268517000F11401090C434A126891709E
:1054B00000F11401090E404A1268D17000BF3E4944
:1054C0000968091D3C4A116000BF00BF2221126813
:1054D000117039490968491C374A116000BF00BF83
:1054E00001211268117034490968491C324A11605F
:1054F00000BF00BF0121126811702F490968491CC3
:105500002D4A116000BF00BF282102E02FE113E007
:105510002BE11268117028490968491C264A11605C
:1055200000BF00BF2B211268117023490968491C74
:10553000214A116000BF18E100BF24211E4A1268F1
:1055400011701D490968491C1B4A116000BF00BF4A
:1055500000BF00F1140112681170090A164A12689E
:10556000517000F11401090C134A1268917000F196
:105570001401090E104A1268D17000BF0E49096863
:10558000091D0D4A116000BF00BF2621126811706D
:1055900009490968491C084A116000BF00BF00BFE3
:1055A00000F1140112681170090A034A126851705F
:1055B00000F11401090C01E034170020FC4A1268C4
:1055C000917000F11401090EF94A1268D17000BF00
:1055D000F7490968091DF64A116000BF00BF232181
:1055E00012681170F2490968491CF14A116000BF44
:1055F00000BF00BF0121126811700021EC4A12683F
:10560000517000BFEA490968891CE94A116000BF6E
:1056100000BF022112681170E5490968491CE44A7B
:10562000116000BF00BF292112681170E0490968AC
:10563000491CDF4A116000BF00BF2B2112681170A6
:10564000DB490968491CDA4A116000BF8DE000BFE0
:105650002421D74A12681170D5490968491CD44AD7
:10566000116000BF00BF00BF00F11401126811708B
:10567000090ACF4A1268517000F11401090CCC4A92
:105680001268917000F11401090EC94A1268D170B4
:1056900000BFC7490968091DC54A116000BF00BFA6
:1056A000272112681170C2490968491CC04A11605B
:1056B00000BF00BF00BF00F1140112681170090A99
:1056C000BB4A1268517000F11401090CB84A126803
:1056D000917000F11401090EB54A1268D17000BF33
:1056E000B3490968091DB24A116000BF00BF2421F7
:1056F00012681170AE490968491CAD4A116000BFBB
:1057000000BF00BF0121126811700021A84A126871
:105710005170A74A12689170A54A1268D17000BFF3
:10572000A3490968091DA24A116000BF00BF0321F7
:10573000126811709E490968491C9D4A116000BF9A
:1057400000BF2A211268117099490968491C984ABA
:10575000116000BF00BF2B211268117094490968C5
:10576000491C934A116000BF00BF00BF00BF01E2A7
:10577000206900287ED02069007801287AD121692B
:1057800088686178012904D0022974D0032973D173
:1057900010E100BF2421864A12681170844909680B
:1057A000491C834A116000BF00BF00BF00F1140113
:1057B00012681170090A7E4A1268517000F11401D2
:1057C000090C7B4A1268917000F11401090E784AA5
:1057D0001268D17000BF76490968091D744A1160CA
:1057E00000BF00BF25211268117071490968491C6A
:1057F0006F4A116000BF00BF00BF00F114011268C2
:105800001170090A6A4A1268517000F11401090CFA
:10581000674A1268917000F11401090E644A126817
:10582000D17000BF62490968091D614A116000BF5B
:1058300000BF2221126811705D490968491C5C4A49
:10584000116000BF00BF012112681170584909683A
:10585000491C574A116000BF00BF04211268117033
:1058600053490968491C524A116000BF00BF2821F2
:10587000126802E02EE112E02AE111704C49096839
:10588000491C4B4A116000BF00BF2B2112681170E8
:1058900047490968491C464A116000BF18E100BF2A
:1058A0002421434A1268117041490968491C404A41
:1058B000116000BF00BF00BF00F114011268117039
:1058C000090A3B4A1268517000F11401090C384A68
:1058D0001268917000F11401090E354A1268D170F6
:1058E00000BF33490968091D314A116000BF00BF7C
:1058F0002621126811702E490968491C2C4A116032
:1059000000BF00BF00BF00F1140112681170090A46
:10591000274A1268517000F11401090C244A1268D8
:10592000917000F11401090E214A1268D17000BF74
:105930001F490968091D1E4A116000BF00BF2321CD
:10594000126811701A490968491C194A116000BF90
:1059500000BF00BF0121126811700021144A1268B3
:10596000517000BF12490968891C114A116000BFBB
:1059700000BF0521126811700D490968491C0C4AC5
:10598000116000BF00BF2921126811700849096821
:10599000491C074A116000BF00BF2B21126811701B
:1059A00003490968491C024A116000BF90E00000E9
:1059B0003417002000BF2421724A12681170714907
:1059C0000968491C6F4A116000BF00BF00BF00F1A9
:1059D000140112681170090A6A4A1268517000F1C4
:1059E0001401090C674A1268917000F11401090E44
:1059F000644A1268D17000BF62490968091D614A92
:105A0000116000BF00BF2721126811705D4909684D
:105A1000491C5C4A116000BF00BF00BF00F11401C7
:105A200012681170090A574A1268517000F1140186
:105A3000090C544A1268917000F11401090E514A80
:105A40001268D17000BF4F490968091D4D4A1160A5
:105A500000BF00BF2421126811704A490968491C1F
:105A6000484A116000BF00BF00BF012112681170D9
:105A70000021444A12685170424A12689170414AAA
:105A80001268D17000BF3F490968091D3D4A116085
:105A900000BF00BF0621126811703A490968491C0D
:105AA000384A116000BF00BF2A21126811703549C1
:105AB0000968491C334A116000BF00BF2B211268DE
:105AC000117030490968491C2E4A116000BF00BF9F
:105AD00000BF00BF4EE000BF00BF00202949096899
